{
  "_format": "hh-sol-artifact-1",
  "contractName": "LymarhToken",
  "sourceName": "contracts/LymarhToken.sol",
  "abi": [
    {
      "inputs": [],
      "stateMutability": "nonpayable",
      "type": "constructor"
    },
    {
      "inputs": [],
      "name": "AddressNotValid",
      "type": "error"
    },
    {
      "inputs": [],
      "name": "AmountCannotBeZero",
      "type": "error"
    },
    {
      "inputs": [
        {
          "internalType": "address",
          "name": "spender",
          "type": "address"
        },
        {
          "internalType": "uint256",
          "name": "allowance",
          "type": "uint256"
        },
        {
          "internalType": "uint256",
          "name": "needed",
          "type": "uint256"
        }
      ],
      "name": "ERC20InsufficientAllowance",
      "type": "error"
    },
    {
      "inputs": [
        {
          "internalType": "address",
          "name": "sender",
          "type": "address"
        },
        {
          "internalType": "uint256",
          "name": "balance",
          "type": "uint256"
        },
        {
          "internalType": "uint256",
          "name": "needed",
          "type": "uint256"
        }
      ],
      "name": "ERC20InsufficientBalance",
      "type": "error"
    },
    {
      "inputs": [
        {
          "internalType": "address",
          "name": "approver",
          "type": "address"
        }
      ],
      "name": "ERC20InvalidApprover",
      "type": "error"
    },
    {
      "inputs": [
        {
          "internalType": "address",
          "name": "receiver",
          "type": "address"
        }
      ],
      "name": "ERC20InvalidReceiver",
      "type": "error"
    },
    {
      "inputs": [
        {
          "internalType": "address",
          "name": "sender",
          "type": "address"
        }
      ],
      "name": "ERC20InvalidSender",
      "type": "error"
    },
    {
      "inputs": [
        {
          "internalType": "address",
          "name": "spender",
          "type": "address"
        }
      ],
      "name": "ERC20InvalidSpender",
      "type": "error"
    },
    {
      "inputs": [
        {
          "internalType": "address",
          "name": "owner",
          "type": "address"
        }
      ],
      "name": "OwnableInvalidOwner",
      "type": "error"
    },
    {
      "inputs": [
        {
          "internalType": "address",
          "name": "account",
          "type": "address"
        }
      ],
      "name": "OwnableUnauthorizedAccount",
      "type": "error"
    },
    {
      "inputs": [
        {
          "internalType": "uint256",
          "name": "remainingSupply",
          "type": "uint256"
        }
      ],
      "name": "SupplyLimitExceeded",
      "type": "error"
    },
    {
      "inputs": [
        {
          "internalType": "uint256",
          "name": "nextAllowedTime",
          "type": "uint256"
        }
      ],
      "name": "WaitTimeNotReached",
      "type": "error"
    },
    {
      "anonymous": false,
      "inputs": [
        {
          "indexed": true,
          "internalType": "address",
          "name": "owner",
          "type": "address"
        },
        {
          "indexed": true,
          "internalType": "address",
          "name": "spender",
          "type": "address"
        },
        {
          "indexed": false,
          "internalType": "uint256",
          "name": "value",
          "type": "uint256"
        }
      ],
      "name": "Approval",
      "type": "event"
    },
    {
      "anonymous": false,
      "inputs": [
        {
          "indexed": true,
          "internalType": "address",
          "name": "user",
          "type": "address"
        },
        {
          "indexed": false,
          "internalType": "uint256",
          "name": "value",
          "type": "uint256"
        },
        {
          "indexed": false,
          "internalType": "uint256",
          "name": "nextEligibleTime",
          "type": "uint256"
        }
      ],
      "name": "ClaimProcessed",
      "type": "event"
    },
    {
      "anonymous": false,
      "inputs": [
        {
          "indexed": true,
          "internalType": "address",
          "name": "recipient",
          "type": "address"
        },
        {
          "indexed": false,
          "internalType": "uint256",
          "name": "value",
          "type": "uint256"
        },
        {
          "indexed": false,
          "internalType": "uint256",
          "name": "updatedSupply",
          "type": "uint256"
        }
      ],
      "name": "MintExecuted",
      "type": "event"
    },
    {
      "anonymous": false,
      "inputs": [
        {
          "indexed": true,
          "internalType": "address",
          "name": "previousOwner",
          "type": "address"
        },
        {
          "indexed": true,
          "internalType": "address",
          "name": "newOwner",
          "type": "address"
        }
      ],
      "name": "OwnershipTransferred",
      "type": "event"
    },
    {
      "anonymous": false,
      "inputs": [
        {
          "indexed": true,
          "internalType": "address",
          "name": "from",
          "type": "address"
        },
        {
          "indexed": true,
          "internalType": "address",
          "name": "to",
          "type": "address"
        },
        {
          "indexed": false,
          "internalType": "uint256",
          "name": "value",
          "type": "uint256"
        }
      ],
      "name": "Transfer",
      "type": "event"
    },
    {
      "inputs": [],
      "name": "FAUCET_REWARD",
      "outputs": [
        {
          "internalType": "uint256",
          "name": "",
          "type": "uint256"
        }
      ],
      "stateMutability": "view",
      "type": "function"
    },
    {
      "inputs": [],
      "name": "INITIAL_SUPPLY",
      "outputs": [
        {
          "internalType": "uint256",
          "name": "",
          "type": "uint256"
        }
      ],
      "stateMutability": "view",
      "type": "function"
    },
    {
      "inputs": [],
      "name": "TOTAL_SUPPLY",
      "outputs": [
        {
          "internalType": "uint256",
          "name": "",
          "type": "uint256"
        }
      ],
      "stateMutability": "view",
      "type": "function"
    },
    {
      "inputs": [],
      "name": "WAIT_DURATION",
      "outputs": [
        {
          "internalType": "uint256",
          "name": "",
          "type": "uint256"
        }
      ],
      "stateMutability": "view",
      "type": "function"
    },
    {
      "inputs": [
        {
          "internalType": "address",
          "name": "owner",
          "type": "address"
        },
        {
          "internalType": "address",
          "name": "spender",
          "type": "address"
        }
      ],
      "name": "allowance",
      "outputs": [
        {
          "internalType": "uint256",
          "name": "",
          "type": "uint256"
        }
      ],
      "stateMutability": "view",
      "type": "function"
    },
    {
      "inputs": [
        {
          "internalType": "address",
          "name": "spender",
          "type": "address"
        },
        {
          "internalType": "uint256",
          "name": "value",
          "type": "uint256"
        }
      ],
      "name": "approve",
      "outputs": [
        {
          "internalType": "bool",
          "name": "",
          "type": "bool"
        }
      ],
      "stateMutability": "nonpayable",
      "type": "function"
    },
    {
      "inputs": [
        {
          "internalType": "address",
          "name": "account",
          "type": "address"
        }
      ],
      "name": "balanceOf",
      "outputs": [
        {
          "internalType": "uint256",
          "name": "",
          "type": "uint256"
        }
      ],
      "stateMutability": "view",
      "type": "function"
    },
    {
      "inputs": [],
      "name": "claimTokens",
      "outputs": [],
      "stateMutability": "nonpayable",
      "type": "function"
    },
    {
      "inputs": [],
      "name": "decimals",
      "outputs": [
        {
          "internalType": "uint8",
          "name": "",
          "type": "uint8"
        }
      ],
      "stateMutability": "view",
      "type": "function"
    },
    {
      "inputs": [
        {
          "internalType": "address",
          "name": "",
          "type": "address"
        }
      ],
      "name": "lastRequestTime",
      "outputs": [
        {
          "internalType": "uint256",
          "name": "",
          "type": "uint256"
        }
      ],
      "stateMutability": "view",
      "type": "function"
    },
    {
      "inputs": [
        {
          "internalType": "address",
          "name": "recipient",
          "type": "address"
        },
        {
          "internalType": "uint256",
          "name": "value",
          "type": "uint256"
        }
      ],
      "name": "mint",
      "outputs": [],
      "stateMutability": "nonpayable",
      "type": "function"
    },
    {
      "inputs": [],
      "name": "name",
      "outputs": [
        {
          "internalType": "string",
          "name": "",
          "type": "string"
        }
      ],
      "stateMutability": "view",
      "type": "function"
    },
    {
      "inputs": [],
      "name": "owner",
      "outputs": [
        {
          "internalType": "address",
          "name": "",
          "type": "address"
        }
      ],
      "stateMutability": "view",
      "type": "function"
    },
    {
      "inputs": [],
      "name": "remainingSupply",
      "outputs": [
        {
          "internalType": "uint256",
          "name": "",
          "type": "uint256"
        }
      ],
      "stateMutability": "view",
      "type": "function"
    },
    {
      "inputs": [],
      "name": "renounceOwnership",
      "outputs": [],
      "stateMutability": "nonpayable",
      "type": "function"
    },
    {
      "inputs": [],
      "name": "symbol",
      "outputs": [
        {
          "internalType": "string",
          "name": "",
          "type": "string"
        }
      ],
      "stateMutability": "view",
      "type": "function"
    },
    {
      "inputs": [],
      "name": "totalSupply",
      "outputs": [
        {
          "internalType": "uint256",
          "name": "",
          "type": "uint256"
        }
      ],
      "stateMutability": "view",
      "type": "function"
    },
    {
      "inputs": [
        {
          "internalType": "address",
          "name": "to",
          "type": "address"
        },
        {
          "internalType": "uint256",
          "name": "value",
          "type": "uint256"
        }
      ],
      "name": "transfer",
      "outputs": [
        {
          "internalType": "bool",
          "name": "",
          "type": "bool"
        }
      ],
      "stateMutability": "nonpayable",
      "type": "function"
    },
    {
      "inputs": [
        {
          "internalType": "address",
          "name": "from",
          "type": "address"
        },
        {
          "internalType": "address",
          "name": "to",
          "type": "address"
        },
        {
          "internalType": "uint256",
          "name": "value",
          "type": "uint256"
        }
      ],
      "name": "transferFrom",
      "outputs": [
        {
          "internalType": "bool",
          "name": "",
          "type": "bool"
        }
      ],
      "stateMutability": "nonpayable",
      "type": "function"
    },
    {
      "inputs": [
        {
          "internalType": "address",
          "name": "newOwner",
          "type": "address"
        }
      ],
      "name": "transferOwnership",
      "outputs": [],
      "stateMutability": "nonpayable",
      "type": "function"
    }
  ],
  "bytecode": "0x608060405234801561001057600080fd5b50336040518060400160405280600681526020017f4c796d61726800000000000000000000000000000000000000000000000000008152506040518060400160405280600281526020017f4c48000000000000000000000000000000000000000000000000000000000000815250816003908161008d9190610794565b50806004908161009d9190610794565b505050600073ffffffffffffffffffffffffffffffffffffffff168173ffffffffffffffffffffffffffffffffffffffff16036101125760006040517f1e4fbdf700000000000000000000000000000000000000000000000000000000815260040161010991906108a7565b60405180910390fd5b610121816101d160201b60201c565b5061013d336a034f086f3b33b68400000061029760201b60201c565b6a084595161401484a0000006a034f086f3b33b684000000106a084595161401484a000000906101a3576040517f0810bd4800000000000000000000000000000000000000000000000000000000815260040161019a91906108d1565b60405180910390fd5b506a034f086f3b33b6840000006a084595161401484a0000006101c6919061091b565b6006819055506109ba565b6000600560009054906101000a900473ffffffffffffffffffffffffffffffffffffffff16905081600560006101000a81548173ffffffffffffffffffffffffffffffffffffffff021916908373ffffffffffffffffffffffffffffffffffffffff1602179055508173ffffffffffffffffffffffffffffffffffffffff168173ffffffffffffffffffffffffffffffffffffffff167f8be0079c531659141344cd1fd0a4f28419497f9722a3daafe3b4186f6b6457e060405160405180910390a35050565b600073ffffffffffffffffffffffffffffffffffffffff168273ffffffffffffffffffffffffffffffffffffffff16036103095760006040517fec442f0500000000000000000000000000000000000000000000000000000000815260040161030091906108a7565b60405180910390fd5b61031b6000838361031f60201b60201c565b5050565b600073ffffffffffffffffffffffffffffffffffffffff168373ffffffffffffffffffffffffffffffffffffffff1603610371578060026000828254610365919061094f565b92505081905550610444565b60008060008573ffffffffffffffffffffffffffffffffffffffff1673ffffffffffffffffffffffffffffffffffffffff168152602001908152602001600020549050818110156103fd578381836040517fe450d38c0000000000000000000000000000000000000000000000000000000081526004016103f493929190610983565b60405180910390fd5b8181036000808673ffffffffffffffffffffffffffffffffffffffff1673ffffffffffffffffffffffffffffffffffffffff16815260200190815260200160002081905550505b600073ffffffffffffffffffffffffffffffffffffffff168273ffffffffffffffffffffffffffffffffffffffff160361048d57806002600082825403925050819055506104da565b806000808473ffffffffffffffffffffffffffffffffffffffff1673ffffffffffffffffffffffffffffffffffffffff168152602001908152602001600020600082825401925050819055505b8173ffffffffffffffffffffffffffffffffffffffff168373ffffffffffffffffffffffffffffffffffffffff167fddf252ad1be2c89b69c2b068fc378daa952ba7f163c4a11628f55a4df523b3ef8360405161053791906108d1565b60405180910390a3505050565b600081519050919050565b7f4e487b7100000000000000000000000000000000000000000000000000000000600052604160045260246000fd5b7f4e487b7100000000000000000000000000000000000000000000000000000000600052602260045260246000fd5b600060028204905060018216806105c557607f821691505b6020821081036105d8576105d761057e565b5b50919050565b60008190508160005260206000209050919050565b60006020601f8301049050919050565b600082821b905092915050565b6000600883026106407fffffffffffffffffffffffffffffffffffffffffffffffffffffffffffffffff82610603565b61064a8683610603565b95508019841693508086168417925050509392505050565b6000819050919050565b6000819050919050565b600061069161068c61068784610662565b61066c565b610662565b9050919050565b6000819050919050565b6106ab83610676565b6106bf6106b782610698565b848454610610565b825550505050565b600090565b6106d46106c7565b6106df8184846106a2565b505050565b5b81811015610703576106f86000826106cc565b6001810190506106e5565b5050565b601f82111561074857610719816105de565b610722846105f3565b81016020851015610731578190505b61074561073d856105f3565b8301826106e4565b50505b505050565b600082821c905092915050565b600061076b6000198460080261074d565b1980831691505092915050565b6000610784838361075a565b9150826002028217905092915050565b61079d82610544565b67ffffffffffffffff8111156107b6576107b561054f565b5b6107c082546105ad565b6107cb828285610707565b600060209050601f8311600181146107fe57600084156107ec578287015190505b6107f68582610778565b86555061085e565b601f19841661080c866105de565b60005b828110156108345784890151825560018201915060208501945060208101905061080f565b86831015610851578489015161084d601f89168261075a565b8355505b6001600288020188555050505b505050505050565b600073ffffffffffffffffffffffffffffffffffffffff82169050919050565b600061089182610866565b9050919050565b6108a181610886565b82525050565b60006020820190506108bc6000830184610898565b92915050565b6108cb81610662565b82525050565b60006020820190506108e660008301846108c2565b92915050565b7f4e487b7100000000000000000000000000000000000000000000000000000000600052601160045260246000fd5b600061092682610662565b915061093183610662565b9250828203905081811115610949576109486108ec565b5b92915050565b600061095a82610662565b915061096583610662565b925082820190508082111561097d5761097c6108ec565b5b92915050565b60006060820190506109986000830186610898565b6109a560208301856108c2565b6109b260408301846108c2565b949350505050565b6116b1806109c96000396000f3fe608060405234801561001057600080fd5b506004361061012c5760003560e01c8063693f8d98116100ad57806395d89b411161007157806395d89b4114610311578063a9059cbb1461032f578063da0239a61461035f578063dd62ed3e1461037d578063f2fde38b146103ad5761012c565b8063693f8d981461027d57806370a082311461029b578063715018a6146102cb5780638da5cb5b146102d5578063902d55a5146102f35761012c565b80632ff2e9dc116100f45780632ff2e9dc146101eb578063313ce56714610209578063394f61811461022757806340c10f191461025757806348c54b9d146102735761012c565b806306fdde0314610131578063095ea7b31461014f57806318160ddd1461017f5780631a7c23741461019d57806323b872dd146101bb575b600080fd5b6101396103c9565b60405161014691906112a8565b60405180910390f35b61016960048036038101906101649190611363565b61045b565b60405161017691906113be565b60405180910390f35b61018761047e565b60405161019491906113e8565b60405180910390f35b6101a5610488565b6040516101b291906113e8565b60405180910390f35b6101d560048036038101906101d09190611403565b610495565b6040516101e291906113be565b60405180910390f35b6101f36104c4565b60405161020091906113e8565b60405180910390f35b6102116104d3565b60405161021e9190611472565b60405180910390f35b610241600480360381019061023c919061148d565b6104dc565b60405161024e91906113e8565b60405180910390f35b610271600480360381019061026c9190611363565b6104f4565b005b61027b61065e565b005b610285610846565b60405161029291906113e8565b60405180910390f35b6102b560048036038101906102b0919061148d565b61084d565b6040516102c291906113e8565b60405180910390f35b6102d3610895565b005b6102dd6108a9565b6040516102ea91906114c9565b60405180910390f35b6102fb6108d3565b60405161030891906113e8565b60405180910390f35b6103196108e2565b60405161032691906112a8565b60405180910390f35b61034960048036038101906103449190611363565b610974565b60405161035691906113be565b60405180910390f35b610367610997565b60405161037491906113e8565b60405180910390f35b610397600480360381019061039291906114e4565b61099d565b6040516103a491906113e8565b60405180910390f35b6103c760048036038101906103c2919061148d565b610a24565b005b6060600380546103d890611553565b80601f016020809104026020016040519081016040528092919081815260200182805461040490611553565b80156104515780601f1061042657610100808354040283529160200191610451565b820191906000526020600020905b81548152906001019060200180831161043457829003601f168201915b5050505050905090565b600080610466610aaa565b9050610473818585610ab2565b600191505092915050565b6000600254905090565b683635c9adc5dea0000081565b6000806104a0610aaa565b90506104ad858285610ac4565b6104b8858585610b59565b60019150509392505050565b6a034f086f3b33b68400000081565b60006012905090565b60076020528060005260406000206000915090505481565b6104fc610c4d565b600073ffffffffffffffffffffffffffffffffffffffff168273ffffffffffffffffffffffffffffffffffffffff1603610562576040517fd23f952100000000000000000000000000000000000000000000000000000000815260040160405180910390fd5b6000810361059c576040517fd11b25af00000000000000000000000000000000000000000000000000000000815260040160405180910390fd5b6006548111156105e5576006546040517f0810bd480000000000000000000000000000000000000000000000000000000081526004016105dc91906113e8565b60405180910390fd5b806006546105f391906115b3565b6006819055506106038282610cd4565b8173ffffffffffffffffffffffffffffffffffffffff167f936dce27c9e497c4a428a90f655b6672bbe78655372ca6b1d28971b2c285fd648261064461047e565b6040516106529291906115e7565b60405180910390a25050565b60003390506000600760008373ffffffffffffffffffffffffffffffffffffffff1673ffffffffffffffffffffffffffffffffffffffff168152602001908152602001600020549050600081141580156106c557506202a300816106c29190611610565b42105b15610715576202a300816106d99190611610565b6040517fa7cc321d00000000000000000000000000000000000000000000000000000000815260040161070c91906113e8565b60405180910390fd5b683635c9adc5dea000006006541015610767576006546040517f0810bd4800000000000000000000000000000000000000000000000000000000815260040161075e91906113e8565b60405180910390fd5b42600760008473ffffffffffffffffffffffffffffffffffffffff1673ffffffffffffffffffffffffffffffffffffffff168152602001908152602001600020819055506107be82683635c9adc5dea00000610cd4565b683635c9adc5dea000006006546107d591906115b3565b6006819055508173ffffffffffffffffffffffffffffffffffffffff167f127926f9f9c57357941976fd23caadfc51770270b445a56dc7a26841f633048f683635c9adc5dea000006202a3004261082c9190611610565b60405161083a9291906115e7565b60405180910390a25050565b6202a30081565b60008060008373ffffffffffffffffffffffffffffffffffffffff1673ffffffffffffffffffffffffffffffffffffffff168152602001908152602001600020549050919050565b61089d610c4d565b6108a76000610d56565b565b6000600560009054906101000a900473ffffffffffffffffffffffffffffffffffffffff16905090565b6a084595161401484a00000081565b6060600480546108f190611553565b80601f016020809104026020016040519081016040528092919081815260200182805461091d90611553565b801561096a5780601f1061093f5761010080835404028352916020019161096a565b820191906000526020600020905b81548152906001019060200180831161094d57829003601f168201915b5050505050905090565b60008061097f610aaa565b905061098c818585610b59565b600191505092915050565b60065481565b6000600160008473ffffffffffffffffffffffffffffffffffffffff1673ffffffffffffffffffffffffffffffffffffffff16815260200190815260200160002060008373ffffffffffffffffffffffffffffffffffffffff1673ffffffffffffffffffffffffffffffffffffffff16815260200190815260200160002054905092915050565b610a2c610c4d565b600073ffffffffffffffffffffffffffffffffffffffff168173ffffffffffffffffffffffffffffffffffffffff1603610a9e5760006040517f1e4fbdf7000000000000000000000000000000000000000000000000000000008152600401610a9591906114c9565b60405180910390fd5b610aa781610d56565b50565b600033905090565b610abf8383836001610e1c565b505050565b6000610ad0848461099d565b90507fffffffffffffffffffffffffffffffffffffffffffffffffffffffffffffffff811015610b535781811015610b43578281836040517ffb8f41b2000000000000000000000000000000000000000000000000000000008152600401610b3a93929190611644565b60405180910390fd5b610b5284848484036000610e1c565b5b50505050565b600073ffffffffffffffffffffffffffffffffffffffff168373ffffffffffffffffffffffffffffffffffffffff1603610bcb5760006040517f96c6fd1e000000000000000000000000000000000000000000000000000000008152600401610bc291906114c9565b60405180910390fd5b600073ffffffffffffffffffffffffffffffffffffffff168273ffffffffffffffffffffffffffffffffffffffff1603610c3d5760006040517fec442f05000000000000000000000000000000000000000000000000000000008152600401610c3491906114c9565b60405180910390fd5b610c48838383610ff3565b505050565b610c55610aaa565b73ffffffffffffffffffffffffffffffffffffffff16610c736108a9565b73ffffffffffffffffffffffffffffffffffffffff1614610cd257610c96610aaa565b6040517f118cdaa7000000000000000000000000000000000000000000000000000000008152600401610cc991906114c9565b60405180910390fd5b565b600073ffffffffffffffffffffffffffffffffffffffff168273ffffffffffffffffffffffffffffffffffffffff1603610d465760006040517fec442f05000000000000000000000000000000000000000000000000000000008152600401610d3d91906114c9565b60405180910390fd5b610d5260008383610ff3565b5050565b6000600560009054906101000a900473ffffffffffffffffffffffffffffffffffffffff16905081600560006101000a81548173ffffffffffffffffffffffffffffffffffffffff021916908373ffffffffffffffffffffffffffffffffffffffff1602179055508173ffffffffffffffffffffffffffffffffffffffff168173ffffffffffffffffffffffffffffffffffffffff167f8be0079c531659141344cd1fd0a4f28419497f9722a3daafe3b4186f6b6457e060405160405180910390a35050565b600073ffffffffffffffffffffffffffffffffffffffff168473ffffffffffffffffffffffffffffffffffffffff1603610e8e5760006040517fe602df05000000000000000000000000000000000000000000000000000000008152600401610e8591906114c9565b60405180910390fd5b600073ffffffffffffffffffffffffffffffffffffffff168373ffffffffffffffffffffffffffffffffffffffff1603610f005760006040517f94280d62000000000000000000000000000000000000000000000000000000008152600401610ef791906114c9565b60405180910390fd5b81600160008673ffffffffffffffffffffffffffffffffffffffff1673ffffffffffffffffffffffffffffffffffffffff16815260200190815260200160002060008573ffffffffffffffffffffffffffffffffffffffff1673ffffffffffffffffffffffffffffffffffffffff168152602001908152602001600020819055508015610fed578273ffffffffffffffffffffffffffffffffffffffff168473ffffffffffffffffffffffffffffffffffffffff167f8c5be1e5ebec7d5bd14f71427d1e84f3dd0314c0f7b2291e5b200ac8c7c3b92584604051610fe491906113e8565b60405180910390a35b50505050565b600073ffffffffffffffffffffffffffffffffffffffff168373ffffffffffffffffffffffffffffffffffffffff16036110455780600260008282546110399190611610565b92505081905550611118565b60008060008573ffffffffffffffffffffffffffffffffffffffff1673ffffffffffffffffffffffffffffffffffffffff168152602001908152602001600020549050818110156110d1578381836040517fe450d38c0000000000000000000000000000000000000000000000000000000081526004016110c893929190611644565b60405180910390fd5b8181036000808673ffffffffffffffffffffffffffffffffffffffff1673ffffffffffffffffffffffffffffffffffffffff16815260200190815260200160002081905550505b600073ffffffffffffffffffffffffffffffffffffffff168273ffffffffffffffffffffffffffffffffffffffff160361116157806002600082825403925050819055506111ae565b806000808473ffffffffffffffffffffffffffffffffffffffff1673ffffffffffffffffffffffffffffffffffffffff168152602001908152602001600020600082825401925050819055505b8173ffffffffffffffffffffffffffffffffffffffff168373ffffffffffffffffffffffffffffffffffffffff167fddf252ad1be2c89b69c2b068fc378daa952ba7f163c4a11628f55a4df523b3ef8360405161120b91906113e8565b60405180910390a3505050565b600081519050919050565b600082825260208201905092915050565b60005b83811015611252578082015181840152602081019050611237565b60008484015250505050565b6000601f19601f8301169050919050565b600061127a82611218565b6112848185611223565b9350611294818560208601611234565b61129d8161125e565b840191505092915050565b600060208201905081810360008301526112c2818461126f565b905092915050565b600080fd5b600073ffffffffffffffffffffffffffffffffffffffff82169050919050565b60006112fa826112cf565b9050919050565b61130a816112ef565b811461131557600080fd5b50565b60008135905061132781611301565b92915050565b6000819050919050565b6113408161132d565b811461134b57600080fd5b50565b60008135905061135d81611337565b92915050565b6000806040838503121561137a576113796112ca565b5b600061138885828601611318565b92505060206113998582860161134e565b9150509250929050565b60008115159050919050565b6113b8816113a3565b82525050565b60006020820190506113d360008301846113af565b92915050565b6113e28161132d565b82525050565b60006020820190506113fd60008301846113d9565b92915050565b60008060006060848603121561141c5761141b6112ca565b5b600061142a86828701611318565b935050602061143b86828701611318565b925050604061144c8682870161134e565b9150509250925092565b600060ff82169050919050565b61146c81611456565b82525050565b60006020820190506114876000830184611463565b92915050565b6000602082840312156114a3576114a26112ca565b5b60006114b184828501611318565b91505092915050565b6114c3816112ef565b82525050565b60006020820190506114de60008301846114ba565b92915050565b600080604083850312156114fb576114fa6112ca565b5b600061150985828601611318565b925050602061151a85828601611318565b9150509250929050565b7f4e487b7100000000000000000000000000000000000000000000000000000000600052602260045260246000fd5b6000600282049050600182168061156b57607f821691505b60208210810361157e5761157d611524565b5b50919050565b7f4e487b7100000000000000000000000000000000000000000000000000000000600052601160045260246000fd5b60006115be8261132d565b91506115c98361132d565b92508282039050818111156115e1576115e0611584565b5b92915050565b60006040820190506115fc60008301856113d9565b61160960208301846113d9565b9392505050565b600061161b8261132d565b91506116268361132d565b925082820190508082111561163e5761163d611584565b5b92915050565b600060608201905061165960008301866114ba565b61166660208301856113d9565b61167360408301846113d9565b94935050505056fea264697066735822122097e36ea78a34bc19fb5b710236b4aef71264e0c41f3b44386b5c5e7a4b11e7ae64736f6c634300081c0033",
  "linkReferences": {},
  "deployedLinkReferences": {}
}